{
  "transactions": [
    {
      "hash": "0x2df676fd91a3798f1027a5ea5c51b2999f71bf2165ce747635d769faa0de8af0",
      "transactionType": "CALL",
      "contractName": "EntryPoint",
      "contractAddress": "0x0000000071727de22e5e9d8baf0edac6f37da032",
      "function": "handleOps((address,uint256,bytes,bytes,bytes32,uint256,bytes32,bytes,bytes)[],address)",
      "arguments": [
        "[(0xe0a906aBfC993c9F6f06d88f84012071eeDbbC00, 36289858002883497250370664447681530215120906269012176337949278381808266772480, 0xe89e194e5bd3e5a8d40c4cd9c95dd2c56a8a6ed61688f0b90000000000000000000000001ec6a1e000dd440995667e48cb880785c7d6831c0000000000000000000000000000000000000000000000000000000000000060000000000000000000000000000000000000000000000000000000000000000000000000000000000000000000000000000000000000000000000000000000844fff40e10fbcbd24808ab49f2f7b810a39c8ad9adf780a0d65fa6330d7edf0ac2849f2f700000000000000000000000000000000000000000000000000000000000000000000000000000000000000000000000000000000000000000000000000000060000000000000000000000000000000000000000000000000000000000000000000000000000000000000000000000000000000000000000000000000, 0xd9ed0e8f00000000000000000000000000000000000000000000000000000000000000200000000000000000000000008d70ae4ae3fb2a73e78f57da16e6e1edbe9fd3eb000000000000000000000000000000000000000000000000000000000000010000000000000000000000000000000000000000000000000000000000000000010000000000000000000000001ec6a1e000dd440995667e48cb880785c7d6831c0000000000000000000000000000000000000000000000000000000000000140000000000000000000000000baca6f74a5549368568f387fd989c279f940f1a500000000000000000000000000000000000000000000000000000000000002e000000000000000000000000000000000000000000000000000000000000003800000000000000000000000000000000000000000000000000000000000000001000000000000000000000000f7c012789aac54b5e33ea5b88064ca1f1172de05000000000000000000000000000000000000000000000000000000000000016415cca638000000000000000000000000baca6f74a5549368568f387fd989c279f940f1a500000000000000000000000000000000000000000000000000000000000000c000000000000000000000000000000000000000000000000000000000000000e00000000000000000000000000000000000000000000000000000000000000100000000000000000000000000000000000000000000000000000000000000012000000000000000000000000000000000000000000000000000000000000000010000000000000000000000000000000000000000000000000000000000000000000000000000000000000000000000000000000000000000000000000000000000000000000000000000000000000000000000000000000000000000000000000000000000000000000000000000000000000000000000000000000000000001000000000000000000000000f7c012789aac54b5e33ea5b88064ca1f1172de050000000000000000000000000000000000000000000000000000000000000000000000000000000000000000000000000000000000000000000000010000000000000000000000000000000000000000000000000000000000000020000000000000000000000000503b54ed1e62365f0c9e4caf1479623b08acbe77000000000000000000000000000000000000000000000000000000000000004000000000000000000000000000000000000000000000000000000000000000000000000000000000000000000000000000000000000000000000000000000000, 0x00000000000000000000000000060e7400000000000000000000000000051d3c, 69660, 0x0000000000000000000000005241210000000000000000000000000ca36194f7, 0x, 0x000000000000ffffffffffff4141414141414141414141414141414141)]",
        "0x0000000000000000000000000000000000000069"
      ],
      "transaction": {
        "from": "0x8749313f626b100b822d573c71dfffdaca383032",
        "to": "0x0000000071727de22e5e9d8baf0edac6f37da032",
        "gas": "0xc2df6",
        "value": "0x0",
        "input": "0x765e827f0000000000000000000000000000000000000000000000000000000000000040000000000000000000000000000000000000000000000000000000000000006900000000000000000000000000000000000000000000000000000000000000010000000000000000000000000000000000000000000000000000000000000020000000000000000000000000e0a906abfc993c9f6f06d88f84012071eedbbc00503b54ed1e62365f0c9e4caf1479623b08acbe770000000000000000000000000000000000000000000000000000000000000000000000000000000000000120000000000000000000000000000000000000000000000000000000000000028000000000000000000000000000060e7400000000000000000000000000051d3c000000000000000000000000000000000000000000000000000000000001101c0000000000000000000000005241210000000000000000000000000ca36194f7000000000000000000000000000000000000000000000000000000000000068000000000000000000000000000000000000000000000000000000000000006a00000000000000000000000000000000000000000000000000000000000000138e89e194e5bd3e5a8d40c4cd9c95dd2c56a8a6ed61688f0b90000000000000000000000001ec6a1e000dd440995667e48cb880785c7d6831c0000000000000000000000000000000000000000000000000000000000000060000000000000000000000000000000000000000000000000000000000000000000000000000000000000000000000000000000000000000000000000000000844fff40e10fbcbd24808ab49f2f7b810a39c8ad9adf780a0d65fa6330d7edf0ac2849f2f700000000000000000000000000000000000000000000000000000000000000000000000000000000000000000000000000000000000000000000000000000060000000000000000000000000000000000000000000000000000000000000000000000000000000000000000000000000000000000000000000000000000000000000000000000000000000000000000000000000000000000000000000000000000003c4d9ed0e8f00000000000000000000000000000000000000000000000000000000000000200000000000000000000000008d70ae4ae3fb2a73e78f57da16e6e1edbe9fd3eb000000000000000000000000000000000000000000000000000000000000010000000000000000000000000000000000000000000000000000000000000000010000000000000000000000001ec6a1e000dd440995667e48cb880785c7d6831c0000000000000000000000000000000000000000000000000000000000000140000000000000000000000000baca6f74a5549368568f387fd989c279f940f1a500000000000000000000000000000000000000000000000000000000000002e000000000000000000000000000000000000000000000000000000000000003800000000000000000000000000000000000000000000000000000000000000001000000000000000000000000f7c012789aac54b5e33ea5b88064ca1f1172de05000000000000000000000000000000000000000000000000000000000000016415cca638000000000000000000000000baca6f74a5549368568f387fd989c279f940f1a500000000000000000000000000000000000000000000000000000000000000c000000000000000000000000000000000000000000000000000000000000000e00000000000000000000000000000000000000000000000000000000000000100000000000000000000000000000000000000000000000000000000000000012000000000000000000000000000000000000000000000000000000000000000010000000000000000000000000000000000000000000000000000000000000000000000000000000000000000000000000000000000000000000000000000000000000000000000000000000000000000000000000000000000000000000000000000000000000000000000000000000000000000000000000000000000000001000000000000000000000000f7c012789aac54b5e33ea5b88064ca1f1172de050000000000000000000000000000000000000000000000000000000000000000000000000000000000000000000000000000000000000000000000010000000000000000000000000000000000000000000000000000000000000020000000000000000000000000503b54ed1e62365f0c9e4caf1479623b08acbe77000000000000000000000000000000000000000000000000000000000000004000000000000000000000000000000000000000000000000000000000000000000000000000000000000000000000000000000000000000000000000000000000000000000000000000000000000000000000000000000000000000000000000000000000000000000000000000000000000000000000000000000000000000000000000000000000000000000000000000000000000000000000001d000000000000ffffffffffff4141414141414141414141414141414141000000",
        "nonce": "0x4a",
        "chainId": "0xaa36a7"
      },
      "additionalContracts": [
        {
          "transactionType": "CREATE2",
          "address": "0xe0a906abfc993c9f6f06d88f84012071eedbbc00",
          "initCode": "0x6080604052348015600f57600080fd5b5060405161016b38038061016b833981016040819052602c9160b4565b6001600160a01b03811660905760405162461bcd60e51b815260206004820152602260248201527f496e76616c69642073696e676c65746f6e20616464726573732070726f766964604482015261195960f21b606482015260840160405180910390fd5b600080546001600160a01b0319166001600160a01b039290921691909117905560e2565b60006020828403121560c557600080fd5b81516001600160a01b038116811460db57600080fd5b9392505050565b607b806100f06000396000f3fe6080604052600080546001600160a01b0316632cf35bc960e11b823501602757808252602082f35b3682833781823684845af490503d82833e806040573d82fd5b503d81f3fea2646970667358221220384140740989472bb37a5dc002cd4d0f267ec130ea5d9557883ec30fe97f138864736f6c634300081900330000000000000000000000001ec6a1e000dd440995667e48cb880785c7d6831c"
        }
      ],
      "isFixedGasLimit": false
    }
  ],
  "receipts": [
    {
      "status": "0x1",
      "cumulativeGasUsed": "0xc9e8a1",
      "logs": [
        {
          "address": "0xe89e194e5bd3e5a8d40c4cd9c95dd2c56a8a6ed6",
          "topics": [
            "0x4f51faf6c4561ff95f067657e43439f0f856d97c04d9ec9070a6199ad418e235",
            "0x000000000000000000000000e0a906abfc993c9f6f06d88f84012071eedbbc00"
          ],
          "data": "0x0000000000000000000000001ec6a1e000dd440995667e48cb880785c7d6831c",
          "blockHash": "0xc04d8a8838ff9511491132b498deb4a73e953903a073439deac36b9c26cb798d",
          "blockNumber": "0x5b939b",
          "transactionHash": "0x2df676fd91a3798f1027a5ea5c51b2999f71bf2165ce747635d769faa0de8af0",
          "transactionIndex": "0x2a",
          "logIndex": "0x67",
          "removed": false
        },
        {
          "address": "0x0000000071727de22e5e9d8baf0edac6f37da032",
          "topics": [
            "0xd51a9c61267aa6196961883ecf5ff2da6619c37dac0fa92122513fb32c032d2d",
            "0x018781ded646bc22910937cc9a737923ce578a325dd8d7b0014b1b329fda3f58",
            "0x000000000000000000000000e0a906abfc993c9f6f06d88f84012071eedbbc00"
          ],
          "data": "0x000000000000000000000000e89e194e5bd3e5a8d40c4cd9c95dd2c56a8a6ed60000000000000000000000000000000000000000000000000000000000000000",
          "blockHash": "0xc04d8a8838ff9511491132b498deb4a73e953903a073439deac36b9c26cb798d",
          "blockNumber": "0x5b939b",
          "transactionHash": "0x2df676fd91a3798f1027a5ea5c51b2999f71bf2165ce747635d769faa0de8af0",
          "transactionIndex": "0x2a",
          "logIndex": "0x68",
          "removed": false
        },
        {
          "address": "0xe0a906abfc993c9f6f06d88f84012071eedbbc00",
          "topics": [
            "0xd21d0b289f126c4b473ea641963e766833c2f13866e4ff480abd787c100ef123"
          ],
          "data": "0x0000000000000000000000000000000000000000000000000000000000000001000000000000000000000000503b54ed1e62365f0c9e4caf1479623b08acbe77",
          "blockHash": "0xc04d8a8838ff9511491132b498deb4a73e953903a073439deac36b9c26cb798d",
          "blockNumber": "0x5b939b",
          "transactionHash": "0x2df676fd91a3798f1027a5ea5c51b2999f71bf2165ce747635d769faa0de8af0",
          "transactionIndex": "0x2a",
          "logIndex": "0x69",
          "removed": false
        },
        {
          "address": "0x0000000071727de22e5e9d8baf0edac6f37da032",
          "topics": [
            "0x2da466a7b24304f47e87fa2e1e5a81b9831ce54fec19055ce277ca2f39ba42c4",
            "0x000000000000000000000000e0a906abfc993c9f6f06d88f84012071eedbbc00"
          ],
          "data": "0x000000000000000000000000000000000000000000000000009a9c4caaaba1d4",
          "blockHash": "0xc04d8a8838ff9511491132b498deb4a73e953903a073439deac36b9c26cb798d",
          "blockNumber": "0x5b939b",
          "transactionHash": "0x2df676fd91a3798f1027a5ea5c51b2999f71bf2165ce747635d769faa0de8af0",
          "transactionIndex": "0x2a",
          "logIndex": "0x6a",
          "removed": false
        },
        {
          "address": "0x0000000071727de22e5e9d8baf0edac6f37da032",
          "topics": [
            "0xbb47ee3e183a558b1a2ff0874b079f3fc5478b7454eacf2bfc5af2ff5878f972"
          ],
          "data": "0x",
          "blockHash": "0xc04d8a8838ff9511491132b498deb4a73e953903a073439deac36b9c26cb798d",
          "blockNumber": "0x5b939b",
          "transactionHash": "0x2df676fd91a3798f1027a5ea5c51b2999f71bf2165ce747635d769faa0de8af0",
          "transactionIndex": "0x2a",
          "logIndex": "0x6b",
          "removed": false
        },
        {
          "address": "0x0000000071727de22e5e9d8baf0edac6f37da032",
          "topics": [
            "0x1c4fada7374c0a9ee8841fc38afe82932dc0f8e69012e927f061a8bae611a201",
            "0x018781ded646bc22910937cc9a737923ce578a325dd8d7b0014b1b329fda3f58",
            "0x000000000000000000000000e0a906abfc993c9f6f06d88f84012071eedbbc00"
          ],
          "data": "0x503b54ed1e62365f0c9e4caf1479623b08acbe770000000000000000000000000000000000000000000000000000000000000000000000000000000000000040000000000000000000000000000000000000000000000000000000000000002448c9cedae0a906ab0000000000000000000000000000000000000000000000000000000000000000000000000000000000000000000000000000000000000000",
          "blockHash": "0xc04d8a8838ff9511491132b498deb4a73e953903a073439deac36b9c26cb798d",
          "blockNumber": "0x5b939b",
          "transactionHash": "0x2df676fd91a3798f1027a5ea5c51b2999f71bf2165ce747635d769faa0de8af0",
          "transactionIndex": "0x2a",
          "logIndex": "0x6c",
          "removed": false
        },
        {
          "address": "0x0000000071727de22e5e9d8baf0edac6f37da032",
          "topics": [
            "0x49628fd1471006c1482da88028e9ce4dbb080b815c9b0344d39e5a8e6ec1419f",
            "0x018781ded646bc22910937cc9a737923ce578a325dd8d7b0014b1b329fda3f58",
            "0x000000000000000000000000e0a906abfc993c9f6f06d88f84012071eedbbc00",
            "0x0000000000000000000000000000000000000000000000000000000000000000"
          ],
          "data": "0x503b54ed1e62365f0c9e4caf1479623b08acbe7700000000000000000000000000000000000000000000000000000000000000000000000000000000000000000000000000000000000000000000000000000000000000000018a7b6ff14ebc0000000000000000000000000000000000000000000000000000000000008b270",
          "blockHash": "0xc04d8a8838ff9511491132b498deb4a73e953903a073439deac36b9c26cb798d",
          "blockNumber": "0x5b939b",
          "transactionHash": "0x2df676fd91a3798f1027a5ea5c51b2999f71bf2165ce747635d769faa0de8af0",
          "transactionIndex": "0x2a",
          "logIndex": "0x6d",
          "removed": false
        }
      ],
      "logsBloom": "0x000004000000000020000000000000000000000000000000000000000000000000080000004000020000000100040000000000000000000000004200000000000000101000000000000004000000000000420000000000000000000000402000000000000a0800000400000000000800000000000000000000000008000200000000000000000000000000000000000000800200000400000000000000000000000000100000000000400000000000000000000000000000000002000000001000000000000000400001000000104000000000000000000000000000000020000040080001000000000000000000000000000200000000000000000000000000",
      "type": "0x2",
      "transactionHash": "0x2df676fd91a3798f1027a5ea5c51b2999f71bf2165ce747635d769faa0de8af0",
      "transactionIndex": "0x2a",
      "blockHash": "0xc04d8a8838ff9511491132b498deb4a73e953903a073439deac36b9c26cb798d",
      "blockNumber": "0x5b939b",
      "gasUsed": "0x8540b",
      "effectiveGasPrice": "0x2dce2aee4",
      "from": "0x8749313f626b100b822d573c71dfffdaca383032",
      "to": "0x0000000071727de22e5e9d8baf0edac6f37da032",
      "contractAddress": null
    }
  ],
  "libraries": [],
  "pending": [],
  "returns": {},
  "timestamp": 1717003806,
  "chain": 11155111,
  "commit": "9365a25"
}